{
  "_format": "hh-sol-artifact-1",
  "contractName": "NFTMarket",
  "sourceName": "contracts/Market.sol",
  "abi": [
    {
      "inputs": [],
      "stateMutability": "nonpayable",
      "type": "constructor"
    },
    {
      "anonymous": false,
      "inputs": [
        {
          "indexed": true,
          "internalType": "uint256",
          "name": "itemId",
          "type": "uint256"
        },
        {
          "indexed": true,
          "internalType": "address",
          "name": "nftContract",
          "type": "address"
        },
        {
          "indexed": true,
          "internalType": "uint256",
          "name": "tokenId",
          "type": "uint256"
        },
        {
          "indexed": false,
          "internalType": "address",
          "name": "seller",
          "type": "address"
        },
        {
          "indexed": false,
          "internalType": "address",
          "name": "owner",
          "type": "address"
        },
        {
          "indexed": false,
          "internalType": "uint256",
          "name": "price",
          "type": "uint256"
        },
        {
          "indexed": false,
          "internalType": "bool",
          "name": "sold",
          "type": "bool"
        }
      ],
      "name": "MarketItemCreated",
      "type": "event"
    },
    {
      "inputs": [
        {
          "internalType": "address",
          "name": "nftContract",
          "type": "address"
        },
        {
          "internalType": "uint256",
          "name": "tokenId",
          "type": "uint256"
        },
        {
          "internalType": "uint256",
          "name": "price",
          "type": "uint256"
        }
      ],
      "name": "createMarketItem",
      "outputs": [],
      "stateMutability": "payable",
      "type": "function"
    },
    {
      "inputs": [
        {
          "internalType": "address",
          "name": "nftContract",
          "type": "address"
        },
        {
          "internalType": "uint256",
          "name": "itemId",
          "type": "uint256"
        }
      ],
      "name": "createMarketSale",
      "outputs": [],
      "stateMutability": "payable",
      "type": "function"
    },
    {
      "inputs": [],
      "name": "fetchItemsCreated",
      "outputs": [
        {
          "components": [
            {
              "internalType": "uint256",
              "name": "itemId",
              "type": "uint256"
            },
            {
              "internalType": "address",
              "name": "nftContract",
              "type": "address"
            },
            {
              "internalType": "uint256",
              "name": "tokenId",
              "type": "uint256"
            },
            {
              "internalType": "address payable",
              "name": "seller",
              "type": "address"
            },
            {
              "internalType": "address payable",
              "name": "owner",
              "type": "address"
            },
            {
              "internalType": "uint256",
              "name": "price",
              "type": "uint256"
            },
            {
              "internalType": "bool",
              "name": "sold",
              "type": "bool"
            },
            {
              "internalType": "bool",
              "name": "fake",
              "type": "bool"
            }
          ],
          "internalType": "struct NFTMarket.MarketItem[]",
          "name": "",
          "type": "tuple[]"
        }
      ],
      "stateMutability": "view",
      "type": "function"
    },
    {
      "inputs": [],
      "name": "fetchMarketItems",
      "outputs": [
        {
          "components": [
            {
              "internalType": "uint256",
              "name": "itemId",
              "type": "uint256"
            },
            {
              "internalType": "address",
              "name": "nftContract",
              "type": "address"
            },
            {
              "internalType": "uint256",
              "name": "tokenId",
              "type": "uint256"
            },
            {
              "internalType": "address payable",
              "name": "seller",
              "type": "address"
            },
            {
              "internalType": "address payable",
              "name": "owner",
              "type": "address"
            },
            {
              "internalType": "uint256",
              "name": "price",
              "type": "uint256"
            },
            {
              "internalType": "bool",
              "name": "sold",
              "type": "bool"
            },
            {
              "internalType": "bool",
              "name": "fake",
              "type": "bool"
            }
          ],
          "internalType": "struct NFTMarket.MarketItem[]",
          "name": "",
          "type": "tuple[]"
        }
      ],
      "stateMutability": "view",
      "type": "function"
    },
    {
      "inputs": [],
      "name": "fetchMyNFTs",
      "outputs": [
        {
          "components": [
            {
              "internalType": "uint256",
              "name": "itemId",
              "type": "uint256"
            },
            {
              "internalType": "address",
              "name": "nftContract",
              "type": "address"
            },
            {
              "internalType": "uint256",
              "name": "tokenId",
              "type": "uint256"
            },
            {
              "internalType": "address payable",
              "name": "seller",
              "type": "address"
            },
            {
              "internalType": "address payable",
              "name": "owner",
              "type": "address"
            },
            {
              "internalType": "uint256",
              "name": "price",
              "type": "uint256"
            },
            {
              "internalType": "bool",
              "name": "sold",
              "type": "bool"
            },
            {
              "internalType": "bool",
              "name": "fake",
              "type": "bool"
            }
          ],
          "internalType": "struct NFTMarket.MarketItem[]",
          "name": "",
          "type": "tuple[]"
        }
      ],
      "stateMutability": "view",
      "type": "function"
    },
    {
      "inputs": [],
      "name": "getListingPrice",
      "outputs": [
        {
          "internalType": "uint256",
          "name": "",
          "type": "uint256"
        }
      ],
      "stateMutability": "view",
      "type": "function"
    },
    {
      "inputs": [
        {
          "internalType": "address",
          "name": "nftContract",
          "type": "address"
        },
        {
          "internalType": "uint256",
          "name": "itemId",
          "type": "uint256"
        }
      ],
      "name": "setFake",
      "outputs": [],
      "stateMutability": "nonpayable",
      "type": "function"
    }
  ],
  "bytecode": "0x60806040526658d15e1762800060045534801561001b57600080fd5b506001600055600380546001600160a01b03191633179055610f17806100426000396000f3fe6080604052600436106100705760003560e01c806358eb2df51161004e57806358eb2df5146100d3578063c23b139e146100e8578063d707b3db146100fb578063f064c32e1461011b57600080fd5b80630f08efe01461007557806312e85585146100a0578063202e3740146100be575b600080fd5b34801561008157600080fd5b5061008a610130565b6040516100979190610da9565b60405180910390f35b3480156100ac57600080fd5b50600454604051908152602001610097565b3480156100ca57600080fd5b5061008a6102e9565b6100e66100e1366004610d77565b6104e0565b005b6100e66100f6366004610d4e565b61076d565b34801561010757600080fd5b506100e6610116366004610d4e565b610959565b34801561012757600080fd5b5061008a610af7565b6060600061013d60015490565b9050600061014a60025490565b6001546101579190610e99565b90506000808267ffffffffffffffff81111561018357634e487b7160e01b600052604160045260246000fd5b6040519080825280602002602001820160405280156101bc57816020015b6101a9610cee565b8152602001906001900390816101a15790505b50905060005b848110156102e05760006005816101da846001610e81565b81526020810191909152604001600020600401546001600160a01b031614156102ce57600061020a826001610e81565b600081815260056020818152604092839020835161010080820186528254825260018301546001600160a01b0390811694830194909452600283015495820195909552600382015483166060820152600482015490921660808301529182015460a0820152600682015460ff808216151560c0840152939004909216151560e08301528551929350918590879081106102b357634e487b7160e01b600052603260045260246000fd5b60209081029190910101526102c9600186610e81565b945050505b806102d881610eb0565b9150506101c2565b50949350505050565b606060006102f660015490565b905060008060005b83811015610359573360056000610316846001610e81565b81526020810191909152604001600020600401546001600160a01b0316141561034757610344600184610e81565b92505b8061035181610eb0565b9150506102fe565b5060008267ffffffffffffffff81111561038357634e487b7160e01b600052604160045260246000fd5b6040519080825280602002602001820160405280156103bc57816020015b6103a9610cee565b8152602001906001900390816103a15790505b50905060005b848110156102e05733600560006103da846001610e81565b81526020810191909152604001600020600401546001600160a01b031614156104ce57600061040a826001610e81565b600081815260056020818152604092839020835161010080820186528254825260018301546001600160a01b0390811694830194909452600283015495820195909552600382015483166060820152600482015490921660808301529182015460a0820152600682015460ff808216151560c0840152939004909216151560e08301528551929350918590879081106104b357634e487b7160e01b600052603260045260246000fd5b60209081029190910101526104c9600186610e81565b945050505b806104d881610eb0565b9150506103c2565b6002600054141561050c5760405162461bcd60e51b815260040161050390610e4a565b60405180910390fd5b60026000558061055e5760405162461bcd60e51b815260206004820152601c60248201527f5072696365206d757374206265206174206c65617374203120776569000000006044820152606401610503565b60045434146105bb5760405162461bcd60e51b8152602060048201526024808201527f5072696365206d75737420626520657175616c20746f206c697374696e6720706044820152637269636560e01b6064820152608401610503565b6105c9600180546001019055565b60006105d460015490565b6040805161010080820183528382526001600160a01b0388811660208085018281528587018b81523360608801818152600060808a0181815260a08b018f815260c08c0183815260e08d018481528f85526005998a9052938e90209c518d55965160018d0180546001600160a01b0319908116928d16929092179055955160028d0155925160038c0180548716918b16919091179055516004808c01805490961691909916179093555193880193909355905160069096018054915161ffff1990921696151561ff001916969096179015159094029390931790935592516323b872dd60e01b815292830152306024830152604482018690529192506323b872dd90606401600060405180830381600087803b1580156106f357600080fd5b505af1158015610707573d6000803e3d6000fd5b505060408051338152600060208201819052818301879052606082015290518693506001600160a01b038816925084917f045dfa01dcba2b36aba1d3dc4a874f4b0c5d2fbeb8d2c4b34a7d88c8d8f929d1919081900360800190a4505060016000555050565b600260005414156107905760405162461bcd60e51b815260040161050390610e4a565b6002600081815582815260056020819052604090912090810154910154348214610824576040805162461bcd60e51b81526020600482015260248101919091527f506c65617365207375626d6974207468652061736b696e67207072696365206960448201527f6e206f7264657220746f20636f6d706c657465207468652070757263686173656064820152608401610503565b6000838152600560205260408082206003015490516001600160a01b03909116913480156108fc02929091818181858888f1935050505015801561086c573d6000803e3d6000fd5b506040516323b872dd60e01b8152306004820152336024820152604481018290526001600160a01b038516906323b872dd90606401600060405180830381600087803b1580156108bb57600080fd5b505af11580156108cf573d6000803e3d6000fd5b50505060008481526005602052604090206004810180546001600160a01b03191633179055600601805460ff1916600117905550610911600280546001019055565b6003546004546040516001600160a01b039092169181156108fc0291906000818181858888f1935050505015801561094d573d6000803e3d6000fd5b50506001600055505050565b6002600054141561097c5760405162461bcd60e51b815260040161050390610e4a565b60026000908155818152600560205260409020600401546001600160a01b031633146109fc5760405162461bcd60e51b815260206004820152602960248201527f4f6e6c7920746865206f776e65722063616e2073657420746865206974656d20604482015268617320612066616b6560b81b6064820152608401610503565b60008181526005602052604090206006015460ff1615610a5e5760405162461bcd60e51b815260206004820152601e60248201527f546865206974656d2068617320616c7265616479206265656e20736f6c6400006044820152606401610503565b60008181526005602052604090206004810180546001600160a01b0319908116909155600180830180549092166001600160a01b038616179091556006909101805460ff1916821790556002805490910190556003546004546040516001600160a01b039092169181156108fc0291906000818181858888f19350505050158015610aed573d6000803e3d6000fd5b5050600160005550565b60606000610b0460015490565b905060008060005b83811015610b67573360056000610b24846001610e81565b81526020810191909152604001600020600301546001600160a01b03161415610b5557610b52600184610e81565b92505b80610b5f81610eb0565b915050610b0c565b5060008267ffffffffffffffff811115610b9157634e487b7160e01b600052604160045260246000fd5b604051908082528060200260200182016040528015610bca57816020015b610bb7610cee565b815260200190600190039081610baf5790505b50905060005b848110156102e0573360056000610be8846001610e81565b81526020810191909152604001600020600301546001600160a01b03161415610cdc576000610c18826001610e81565b600081815260056020818152604092839020835161010080820186528254825260018301546001600160a01b0390811694830194909452600283015495820195909552600382015483166060820152600482015490921660808301529182015460a0820152600682015460ff808216151560c0840152939004909216151560e0830152855192935091859087908110610cc157634e487b7160e01b600052603260045260246000fd5b6020908102919091010152610cd7600186610e81565b945050505b80610ce681610eb0565b915050610bd0565b6040805161010081018252600080825260208201819052918101829052606081018290526080810182905260a0810182905260c0810182905260e081019190915290565b80356001600160a01b0381168114610d4957600080fd5b919050565b60008060408385031215610d60578182fd5b610d6983610d32565b946020939093013593505050565b600080600060608486031215610d8b578081fd5b610d9484610d32565b95602085013595506040909401359392505050565b602080825282518282018190526000919060409081850190868401855b82811015610e3d57815180518552868101516001600160a01b039081168887015286820151878701526060808301518216908701526080808301519091169086015260a0808201519086015260c08082015115159086015260e0908101511515908501526101009093019290850190600101610dc6565b5091979650505050505050565b6020808252601f908201527f5265656e7472616e637947756172643a207265656e7472616e742063616c6c00604082015260600190565b60008219821115610e9457610e94610ecb565b500190565b600082821015610eab57610eab610ecb565b500390565b6000600019821415610ec457610ec4610ecb565b5060010190565b634e487b7160e01b600052601160045260246000fdfea2646970667358221220a78028a680eba9fa24be9b05e550d4c6deef210a548b5efa934a28b9d99c7f6664736f6c63430008040033",
  "linkReferences": {},
  "deployedLinkReferences": {}
}